{
  "_format": "hh-sol-artifact-1",
  "contractName": "VRFLottery",
  "sourceName": "contracts/VRFLottery.sol",
  "abi": [
    {
      "inputs": [],
      "stateMutability": "nonpayable",
      "type": "constructor"
    },
    {
      "anonymous": false,
      "inputs": [
        {
          "indexed": false,
          "internalType": "uint256",
          "name": "start",
          "type": "uint256"
        },
        {
          "indexed": false,
          "internalType": "uint256",
          "name": "duration",
          "type": "uint256"
        }
      ],
      "name": "Initialized",
      "type": "event"
    },
    {
      "anonymous": false,
      "inputs": [
        {
          "indexed": true,
          "internalType": "address",
          "name": "previousOwner",
          "type": "address"
        },
        {
          "indexed": true,
          "internalType": "address",
          "name": "newOwner",
          "type": "address"
        }
      ],
      "name": "OwnershipTransferred",
      "type": "event"
    },
    {
      "anonymous": false,
      "inputs": [
        {
          "indexed": true,
          "internalType": "address",
          "name": "addr",
          "type": "address"
        },
        {
          "indexed": false,
          "internalType": "uint256",
          "name": "time",
          "type": "uint256"
        }
      ],
      "name": "Participate",
      "type": "event"
    },
    {
      "anonymous": false,
      "inputs": [
        {
          "indexed": false,
          "internalType": "address",
          "name": "winner",
          "type": "address"
        }
      ],
      "name": "Winner",
      "type": "event"
    },
    {
      "inputs": [],
      "name": "amount",
      "outputs": [
        {
          "internalType": "uint256",
          "name": "",
          "type": "uint256"
        }
      ],
      "stateMutability": "view",
      "type": "function"
    },
    {
      "inputs": [],
      "name": "draw",
      "outputs": [],
      "stateMutability": "nonpayable",
      "type": "function"
    },
    {
      "inputs": [],
      "name": "duration",
      "outputs": [
        {
          "internalType": "uint256",
          "name": "",
          "type": "uint256"
        }
      ],
      "stateMutability": "view",
      "type": "function"
    },
    {
      "inputs": [
        {
          "internalType": "uint256",
          "name": "_start",
          "type": "uint256"
        },
        {
          "internalType": "uint256",
          "name": "_duration",
          "type": "uint256"
        }
      ],
      "name": "initialize",
      "outputs": [],
      "stateMutability": "nonpayable",
      "type": "function"
    },
    {
      "inputs": [],
      "name": "isInitialized",
      "outputs": [
        {
          "internalType": "bool",
          "name": "",
          "type": "bool"
        }
      ],
      "stateMutability": "view",
      "type": "function"
    },
    {
      "inputs": [],
      "name": "isLive",
      "outputs": [
        {
          "internalType": "bool",
          "name": "",
          "type": "bool"
        }
      ],
      "stateMutability": "view",
      "type": "function"
    },
    {
      "inputs": [
        {
          "internalType": "address",
          "name": "",
          "type": "address"
        }
      ],
      "name": "isParticipated",
      "outputs": [
        {
          "internalType": "bool",
          "name": "",
          "type": "bool"
        }
      ],
      "stateMutability": "view",
      "type": "function"
    },
    {
      "inputs": [],
      "name": "isResultOut",
      "outputs": [
        {
          "internalType": "bool",
          "name": "",
          "type": "bool"
        }
      ],
      "stateMutability": "view",
      "type": "function"
    },
    {
      "inputs": [],
      "name": "name",
      "outputs": [
        {
          "internalType": "string",
          "name": "",
          "type": "string"
        }
      ],
      "stateMutability": "view",
      "type": "function"
    },
    {
      "inputs": [],
      "name": "owner",
      "outputs": [
        {
          "internalType": "address",
          "name": "",
          "type": "address"
        }
      ],
      "stateMutability": "view",
      "type": "function"
    },
    {
      "inputs": [],
      "name": "partCount",
      "outputs": [
        {
          "internalType": "uint256",
          "name": "",
          "type": "uint256"
        }
      ],
      "stateMutability": "view",
      "type": "function"
    },
    {
      "inputs": [
        {
          "internalType": "uint256",
          "name": "",
          "type": "uint256"
        }
      ],
      "name": "participants",
      "outputs": [
        {
          "internalType": "address",
          "name": "",
          "type": "address"
        }
      ],
      "stateMutability": "view",
      "type": "function"
    },
    {
      "inputs": [],
      "name": "participate",
      "outputs": [],
      "stateMutability": "payable",
      "type": "function"
    },
    {
      "inputs": [
        {
          "internalType": "bytes32",
          "name": "requestId",
          "type": "bytes32"
        },
        {
          "internalType": "uint256",
          "name": "randomness",
          "type": "uint256"
        }
      ],
      "name": "rawFulfillRandomness",
      "outputs": [],
      "stateMutability": "nonpayable",
      "type": "function"
    },
    {
      "inputs": [],
      "name": "renounceOwnership",
      "outputs": [],
      "stateMutability": "nonpayable",
      "type": "function"
    },
    {
      "inputs": [],
      "name": "start",
      "outputs": [
        {
          "internalType": "uint256",
          "name": "",
          "type": "uint256"
        }
      ],
      "stateMutability": "view",
      "type": "function"
    },
    {
      "inputs": [
        {
          "internalType": "address",
          "name": "newOwner",
          "type": "address"
        }
      ],
      "name": "transferOwnership",
      "outputs": [],
      "stateMutability": "nonpayable",
      "type": "function"
    },
    {
      "inputs": [],
      "name": "winnerWho",
      "outputs": [
        {
          "internalType": "address",
          "name": "",
          "type": "address"
        }
      ],
      "stateMutability": "view",
      "type": "function"
    },
    {
      "stateMutability": "payable",
      "type": "receive"
    }
  ],
  "bytecode": "0x60c06040526040518060400160405280601081526020017f4d79204861726468617420546f6b656e0000000000000000000000000000000081525060029080519060200190620000519291906200024d565b50600060035560006004556000600560006101000a81548160ff02191690831515021790555060006008553480156200008957600080fd5b50738c7382f9d8f56b33781fe506e897a4f1e2d1725573326c977e6efc84e512bb9c30f76e30c160ed06fb620000d4620000c86200018160201b60201c565b6200018960201b60201c565b8173ffffffffffffffffffffffffffffffffffffffff1660a08173ffffffffffffffffffffffffffffffffffffffff1660601b815250508073ffffffffffffffffffffffffffffffffffffffff1660808173ffffffffffffffffffffffffffffffffffffffff1660601b8152505050507f6e75b569a01ef56d18cab6a8e71e6600d6ce853834d4a5748b720d06f878b3a460001b600b81905550655af3107a4000600c8190555062000362565b600033905090565b60008060009054906101000a900473ffffffffffffffffffffffffffffffffffffffff169050816000806101000a81548173ffffffffffffffffffffffffffffffffffffffff021916908373ffffffffffffffffffffffffffffffffffffffff1602179055508173ffffffffffffffffffffffffffffffffffffffff168173ffffffffffffffffffffffffffffffffffffffff167f8be0079c531659141344cd1fd0a4f28419497f9722a3daafe3b4186f6b6457e060405160405180910390a35050565b8280546200025b90620002fd565b90600052602060002090601f0160209004810192826200027f5760008555620002cb565b82601f106200029a57805160ff1916838001178555620002cb565b82800160010185558215620002cb579182015b82811115620002ca578251825591602001919060010190620002ad565b5b509050620002da9190620002de565b5090565b5b80821115620002f9576000816000905550600101620002df565b5090565b600060028204905060018216806200031657607f821691505b602082108114156200032d576200032c62000333565b5b50919050565b7f4e487b7100000000000000000000000000000000000000000000000000000000600052602260045260246000fd5b60805160601c60a05160601c611dca6200039c600039600081816106ed0152610fde015260008181610d2a0152610fa20152611dca6000f3fe60806040526004361061010d5760003560e01c806394985ddd11610095578063c1e127ca11610064578063c1e127ca14610330578063cf5b8d4b1461035b578063d11711a214610398578063e4a30116146103a2578063f2fde38b146103cb57610114565b806394985ddd14610286578063aa8c217c146102af578063b8f7a665146102da578063be9a65551461030557610114565b8063392e53cd116100dc578063392e53cd146101c3578063715018a6146101ee5780638da5cb5b1461020557806390e3d32714610230578063937a04811461025b57610114565b806306fdde03146101195780630eecae21146101445780630fb5a6b41461015b57806335c1d3491461018657610114565b3661011457005b600080fd5b34801561012557600080fd5b5061012e6103f4565b60405161013b91906118c1565b60405180910390f35b34801561015057600080fd5b50610159610482565b005b34801561016757600080fd5b506101706105d5565b60405161017d9190611a83565b60405180910390f35b34801561019257600080fd5b506101ad60048036038101906101a891906112e3565b6105db565b6040516101ba91906117df565b60405180910390f35b3480156101cf57600080fd5b506101d861060e565b6040516101e59190611838565b60405180910390f35b3480156101fa57600080fd5b50610203610621565b005b34801561021157600080fd5b5061021a6106a9565b60405161022791906117df565b60405180910390f35b34801561023c57600080fd5b506102456106d2565b6040516102529190611a83565b60405180910390f35b34801561026757600080fd5b506102706106d8565b60405161027d9190611838565b60405180910390f35b34801561029257600080fd5b506102ad60048036038101906102a891906112a7565b6106eb565b005b3480156102bb57600080fd5b506102c4610787565b6040516102d19190611a83565b60405180910390f35b3480156102e657600080fd5b506102ef610793565b6040516102fc9190611838565b60405180910390f35b34801561031157600080fd5b5061031a6107cb565b6040516103279190611a83565b60405180910390f35b34801561033c57600080fd5b506103456107d1565b60405161035291906117df565b60405180910390f35b34801561036757600080fd5b50610382600480360381019061037d9190611255565b61085d565b60405161038f9190611838565b60405180910390f35b6103a061087d565b005b3480156103ae57600080fd5b506103c960048036038101906103c49190611335565b610aab565b005b3480156103d757600080fd5b506103f260048036038101906103ed9190611255565b610c23565b005b6002805461040190611bda565b80601f016020809104026020016040519081016040528092919081815260200182805461042d90611bda565b801561047a5780601f1061044f5761010080835404028352916020019161047a565b820191906000526020600020905b81548152906001019060200180831161045d57829003601f168201915b505050505081565b61048a610d1b565b73ffffffffffffffffffffffffffffffffffffffff166104a86106a9565b73ffffffffffffffffffffffffffffffffffffffff16146104fe576040517f08c379a00000000000000000000000000000000000000000000000000000000081526004016104f5906119a3565b60405180910390fd5b600960019054906101000a900460ff161561051857600080fd5b600560009054906101000a900460ff16610567576040517f08c379a000000000000000000000000000000000000000000000000000000000815260040161055e906119e3565b60405180910390fd5b61056f610793565b156105af576040517f08c379a00000000000000000000000000000000000000000000000000000000081526004016105a690611a03565b60405180910390fd5b6001600960016101000a81548160ff0219169083151502179055506105d2610d23565b50565b60045481565b60076020528060005260406000206000915054906101000a900473ffffffffffffffffffffffffffffffffffffffff1681565b600560009054906101000a900460ff1681565b610629610d1b565b73ffffffffffffffffffffffffffffffffffffffff166106476106a9565b73ffffffffffffffffffffffffffffffffffffffff161461069d576040517f08c379a0000000000000000000000000000000000000000000000000000000008152600401610694906119a3565b60405180910390fd5b6106a76000610e25565b565b60008060009054906101000a900473ffffffffffffffffffffffffffffffffffffffff16905090565b60085481565b600960009054906101000a900460ff1681565b7f000000000000000000000000000000000000000000000000000000000000000073ffffffffffffffffffffffffffffffffffffffff163373ffffffffffffffffffffffffffffffffffffffff1614610779576040517f08c379a0000000000000000000000000000000000000000000000000000000008152600401610770906119c3565b60405180910390fd5b6107838282610ee9565b5050565b67016345785d8a000081565b600060035442101580156107b557506004546003546107b29190611aff565b42105b156107c357600190506107c8565b600090505b90565b60035481565b6000600960009054906101000a900460ff16610822576040517f08c379a0000000000000000000000000000000000000000000000000000000008152600401610819906118e3565b60405180910390fd5b60076000600a54815260200190815260200160002060009054906101000a900473ffffffffffffffffffffffffffffffffffffffff16905090565b60066020528060005260406000206000915054906101000a900460ff1681565b610885610793565b6108c4576040517f08c379a00000000000000000000000000000000000000000000000000000000081526004016108bb90611a63565b60405180910390fd5b600660003373ffffffffffffffffffffffffffffffffffffffff1673ffffffffffffffffffffffffffffffffffffffff16815260200190815260200160002060009054906101000a900460ff1615610951576040517f08c379a000000000000000000000000000000000000000000000000000000000815260040161094890611983565b60405180910390fd5b67016345785d8a0000341461099b576040517f08c379a000000000000000000000000000000000000000000000000000000000815260040161099290611923565b60405180910390fd5b3360076000600860008154809291906109b390611c0c565b91905055815260200190815260200160002060006101000a81548173ffffffffffffffffffffffffffffffffffffffff021916908373ffffffffffffffffffffffffffffffffffffffff1602179055506001600660003373ffffffffffffffffffffffffffffffffffffffff1673ffffffffffffffffffffffffffffffffffffffff16815260200190815260200160002060006101000a81548160ff0219169083151502179055503373ffffffffffffffffffffffffffffffffffffffff167feb353a6084f42c4569f7fe0e62ec9a9a107f0453a8f76735dd47ef68dcfcce3f42604051610aa19190611a83565b60405180910390a2565b610ab3610d1b565b73ffffffffffffffffffffffffffffffffffffffff16610ad16106a9565b73ffffffffffffffffffffffffffffffffffffffff1614610b27576040517f08c379a0000000000000000000000000000000000000000000000000000000008152600401610b1e906119a3565b60405180910390fd5b600560009054906101000a900460ff1615610b77576040517f08c379a0000000000000000000000000000000000000000000000000000000008152600401610b6e90611a23565b60405180910390fd5b6001600560006101000a81548160ff021916908315150217905550428211610bd4576040517f08c379a0000000000000000000000000000000000000000000000000000000008152600401610bcb90611a43565b60405180910390fd5b81600381905550806004819055507f997896709b4e932ee42750e2e14ed1f7ab6c60bd911ff567aa2485cf0b20051b600354600454604051610c17929190611a9e565b60405180910390a15050565b610c2b610d1b565b73ffffffffffffffffffffffffffffffffffffffff16610c496106a9565b73ffffffffffffffffffffffffffffffffffffffff1614610c9f576040517f08c379a0000000000000000000000000000000000000000000000000000000008152600401610c96906119a3565b60405180910390fd5b600073ffffffffffffffffffffffffffffffffffffffff168173ffffffffffffffffffffffffffffffffffffffff161415610d0f576040517f08c379a0000000000000000000000000000000000000000000000000000000008152600401610d0690611903565b60405180910390fd5b610d1881610e25565b50565b600033905090565b6000600c547f000000000000000000000000000000000000000000000000000000000000000073ffffffffffffffffffffffffffffffffffffffff166370a08231306040518263ffffffff1660e01b8152600401610d8191906117df565b60206040518083038186803b158015610d9957600080fd5b505afa158015610dad573d6000803e3d6000fd5b505050506040513d601f19601f82011682018060405250810190610dd1919061130c565b1015610e12576040517f08c379a0000000000000000000000000000000000000000000000000000000008152600401610e0990611963565b60405180910390fd5b610e20600b54600c54610f9e565b905090565b60008060009054906101000a900473ffffffffffffffffffffffffffffffffffffffff169050816000806101000a81548173ffffffffffffffffffffffffffffffffffffffff021916908373ffffffffffffffffffffffffffffffffffffffff1602179055508173ffffffffffffffffffffffffffffffffffffffff168173ffffffffffffffffffffffffffffffffffffffff167f8be0079c531659141344cd1fd0a4f28419497f9722a3daafe3b4186f6b6457e060405160405180910390a35050565b6001600960006101000a81548160ff021916908315150217905550600081905060085481610f179190611c69565b600a81905550600060076000600a54815260200190815260200160002060009054906101000a900473ffffffffffffffffffffffffffffffffffffffff169050610f6181476110ff565b7f745c90b656b4aafe296c8ca35aeacfe56cb96c90e1d320e5da643fff1051b6c081604051610f9091906117df565b60405180910390a150505050565b60007f000000000000000000000000000000000000000000000000000000000000000073ffffffffffffffffffffffffffffffffffffffff16634000aea07f000000000000000000000000000000000000000000000000000000000000000084866000604051602001611012929190611853565b6040516020818303038152906040526040518463ffffffff1660e01b815260040161103f939291906117fa565b602060405180830381600087803b15801561105957600080fd5b505af115801561106d573d6000803e3d6000fd5b505050506040513d601f19601f82011682018060405250810190611091919061127e565b5060006110b484600030600160008981526020019081526020016000205461117d565b90506001806000868152602001908152602001600020546110d59190611aff565b60016000868152602001908152602001600020819055506110f684826111b9565b91505092915050565b60008273ffffffffffffffffffffffffffffffffffffffff166108fc839081150290604051600060405180830381858888f19350505050905080611178576040517f08c379a000000000000000000000000000000000000000000000000000000000815260040161116f90611943565b60405180910390fd5b505050565b600084848484604051602001611196949392919061187c565b6040516020818303038152906040528051906020012060001c9050949350505050565b600082826040516020016111ce9291906117b3565b60405160208183030381529060405280519060200120905092915050565b6000813590506111fb81611d38565b92915050565b60008151905061121081611d4f565b92915050565b60008135905061122581611d66565b92915050565b60008135905061123a81611d7d565b92915050565b60008151905061124f81611d7d565b92915050565b60006020828403121561126757600080fd5b6000611275848285016111ec565b91505092915050565b60006020828403121561129057600080fd5b600061129e84828501611201565b91505092915050565b600080604083850312156112ba57600080fd5b60006112c885828601611216565b92505060206112d98582860161122b565b9150509250929050565b6000602082840312156112f557600080fd5b60006113038482850161122b565b91505092915050565b60006020828403121561131e57600080fd5b600061132c84828501611240565b91505092915050565b6000806040838503121561134857600080fd5b60006113568582860161122b565b92505060206113678582860161122b565b9150509250929050565b61137a81611b55565b82525050565b61138981611b67565b82525050565b61139881611b73565b82525050565b6113af6113aa82611b73565b611c55565b82525050565b60006113c082611ac7565b6113ca8185611add565b93506113da818560208601611ba7565b6113e381611d27565b840191505092915050565b60006113f982611ad2565b6114038185611aee565b9350611413818560208601611ba7565b61141c81611d27565b840191505092915050565b6000611434601283611aee565b91507f526573756c74206e6f74206f75742079657400000000000000000000000000006000830152602082019050919050565b6000611474602683611aee565b91507f4f776e61626c653a206e6577206f776e657220697320746865207a65726f206160008301527f64647265737300000000000000000000000000000000000000000000000000006020830152604082019050919050565b60006114da600e83611aee565b91507f496e76616c696420416d6f756e740000000000000000000000000000000000006000830152602082019050919050565b600061151a601483611aee565b91507f4661696c656420746f2073656e642045746865720000000000000000000000006000830152602082019050919050565b600061155a600f83611aee565b91507f4e6f7420656e6f756768204c494e4b00000000000000000000000000000000006000830152602082019050919050565b600061159a601283611aee565b91507f54616b656e207061727420616c726561647900000000000000000000000000006000830152602082019050919050565b60006115da602083611aee565b91507f4f776e61626c653a2063616c6c6572206973206e6f7420746865206f776e65726000830152602082019050919050565b600061161a601f83611aee565b91507f4f6e6c7920565246436f6f7264696e61746f722063616e2066756c66696c6c006000830152602082019050919050565b600061165a601983611aee565b91507f4576656e7420776173206e6f7420696e697469616c697a6564000000000000006000830152602082019050919050565b600061169a601383611aee565b91507f4576656e74206973207374696c6c206c697665000000000000000000000000006000830152602082019050919050565b60006116da601383611aee565b91507f416c726561647920696e697469616c697a6564000000000000000000000000006000830152602082019050919050565b600061171a601683611aee565b91507f4576656e742063616e277420626520696e2070617374000000000000000000006000830152602082019050919050565b600061175a601183611aee565b91507f4576656e74206973206e6f74206c6976650000000000000000000000000000006000830152602082019050919050565b61179681611b9d565b82525050565b6117ad6117a882611b9d565b611c5f565b82525050565b60006117bf828561139e565b6020820191506117cf828461179c565b6020820191508190509392505050565b60006020820190506117f46000830184611371565b92915050565b600060608201905061180f6000830186611371565b61181c602083018561178d565b818103604083015261182e81846113b5565b9050949350505050565b600060208201905061184d6000830184611380565b92915050565b6000604082019050611868600083018561138f565b611875602083018461178d565b9392505050565b6000608082019050611891600083018761138f565b61189e602083018661178d565b6118ab6040830185611371565b6118b8606083018461178d565b95945050505050565b600060208201905081810360008301526118db81846113ee565b905092915050565b600060208201905081810360008301526118fc81611427565b9050919050565b6000602082019050818103600083015261191c81611467565b9050919050565b6000602082019050818103600083015261193c816114cd565b9050919050565b6000602082019050818103600083015261195c8161150d565b9050919050565b6000602082019050818103600083015261197c8161154d565b9050919050565b6000602082019050818103600083015261199c8161158d565b9050919050565b600060208201905081810360008301526119bc816115cd565b9050919050565b600060208201905081810360008301526119dc8161160d565b9050919050565b600060208201905081810360008301526119fc8161164d565b9050919050565b60006020820190508181036000830152611a1c8161168d565b9050919050565b60006020820190508181036000830152611a3c816116cd565b9050919050565b60006020820190508181036000830152611a5c8161170d565b9050919050565b60006020820190508181036000830152611a7c8161174d565b9050919050565b6000602082019050611a98600083018461178d565b92915050565b6000604082019050611ab3600083018561178d565b611ac0602083018461178d565b9392505050565b600081519050919050565b600081519050919050565b600082825260208201905092915050565b600082825260208201905092915050565b6000611b0a82611b9d565b9150611b1583611b9d565b9250827fffffffffffffffffffffffffffffffffffffffffffffffffffffffffffffffff03821115611b4a57611b49611c9a565b5b828201905092915050565b6000611b6082611b7d565b9050919050565b60008115159050919050565b6000819050919050565b600073ffffffffffffffffffffffffffffffffffffffff82169050919050565b6000819050919050565b60005b83811015611bc5578082015181840152602081019050611baa565b83811115611bd4576000848401525b50505050565b60006002820490506001821680611bf257607f821691505b60208210811415611c0657611c05611cf8565b5b50919050565b6000611c1782611b9d565b91507fffffffffffffffffffffffffffffffffffffffffffffffffffffffffffffffff821415611c4a57611c49611c9a565b5b600182019050919050565b6000819050919050565b6000819050919050565b6000611c7482611b9d565b9150611c7f83611b9d565b925082611c8f57611c8e611cc9565b5b828206905092915050565b7f4e487b7100000000000000000000000000000000000000000000000000000000600052601160045260246000fd5b7f4e487b7100000000000000000000000000000000000000000000000000000000600052601260045260246000fd5b7f4e487b7100000000000000000000000000000000000000000000000000000000600052602260045260246000fd5b6000601f19601f8301169050919050565b611d4181611b55565b8114611d4c57600080fd5b50565b611d5881611b67565b8114611d6357600080fd5b50565b611d6f81611b73565b8114611d7a57600080fd5b50565b611d8681611b9d565b8114611d9157600080fd5b5056fea26469706673582212203c1bcb4912fa2e956ed9646f12eb9b55f4c58ff9f49294ef9758db86b24091be64736f6c63430008000033",
  "linkReferences": {},
  "deployedLinkReferences": {}
}